{
  "_format": "hh-sol-artifact-1",
  "contractName": "BEESaving",
  "sourceName": "contracts/BEESaving.sol",
  "abi": [
    {
      "inputs": [
        {
          "internalType": "uint256",
          "name": "_initialSupply",
          "type": "uint256"
        }
      ],
      "stateMutability": "nonpayable",
      "type": "constructor"
    },
    {
      "anonymous": false,
      "inputs": [
        {
          "indexed": true,
          "internalType": "address",
          "name": "owner",
          "type": "address"
        },
        {
          "indexed": true,
          "internalType": "address",
          "name": "spender",
          "type": "address"
        },
        {
          "indexed": false,
          "internalType": "uint256",
          "name": "value",
          "type": "uint256"
        }
      ],
      "name": "Approval",
      "type": "event"
    },
    {
      "anonymous": false,
      "inputs": [
        {
          "indexed": true,
          "internalType": "address",
          "name": "user",
          "type": "address"
        },
        {
          "indexed": false,
          "internalType": "uint256",
          "name": "amount",
          "type": "uint256"
        }
      ],
      "name": "Deposited",
      "type": "event"
    },
    {
      "anonymous": false,
      "inputs": [
        {
          "indexed": true,
          "internalType": "address",
          "name": "from",
          "type": "address"
        },
        {
          "indexed": true,
          "internalType": "address",
          "name": "to",
          "type": "address"
        },
        {
          "indexed": false,
          "internalType": "uint256",
          "name": "value",
          "type": "uint256"
        }
      ],
      "name": "Transfer",
      "type": "event"
    },
    {
      "anonymous": false,
      "inputs": [
        {
          "indexed": true,
          "internalType": "address",
          "name": "user",
          "type": "address"
        },
        {
          "indexed": false,
          "internalType": "uint256",
          "name": "amount",
          "type": "uint256"
        }
      ],
      "name": "Withdrawn",
      "type": "event"
    },
    {
      "inputs": [
        {
          "internalType": "address",
          "name": "",
          "type": "address"
        },
        {
          "internalType": "address",
          "name": "",
          "type": "address"
        }
      ],
      "name": "allowance",
      "outputs": [
        {
          "internalType": "uint256",
          "name": "",
          "type": "uint256"
        }
      ],
      "stateMutability": "view",
      "type": "function"
    },
    {
      "inputs": [
        {
          "internalType": "address",
          "name": "_spender",
          "type": "address"
        },
        {
          "internalType": "uint256",
          "name": "_value",
          "type": "uint256"
        }
      ],
      "name": "approve",
      "outputs": [
        {
          "internalType": "bool",
          "name": "success",
          "type": "bool"
        }
      ],
      "stateMutability": "nonpayable",
      "type": "function"
    },
    {
      "inputs": [
        {
          "internalType": "address",
          "name": "",
          "type": "address"
        }
      ],
      "name": "balanceOf",
      "outputs": [
        {
          "internalType": "uint256",
          "name": "",
          "type": "uint256"
        }
      ],
      "stateMutability": "view",
      "type": "function"
    },
    {
      "inputs": [
        {
          "internalType": "address",
          "name": "_user",
          "type": "address"
        }
      ],
      "name": "checkSavings",
      "outputs": [
        {
          "internalType": "uint256",
          "name": "",
          "type": "uint256"
        }
      ],
      "stateMutability": "view",
      "type": "function"
    },
    {
      "inputs": [],
      "name": "decimals",
      "outputs": [
        {
          "internalType": "uint8",
          "name": "",
          "type": "uint8"
        }
      ],
      "stateMutability": "view",
      "type": "function"
    },
    {
      "inputs": [
        {
          "internalType": "uint256",
          "name": "_amount",
          "type": "uint256"
        }
      ],
      "name": "deposit",
      "outputs": [],
      "stateMutability": "nonpayable",
      "type": "function"
    },
    {
      "inputs": [],
      "name": "name",
      "outputs": [
        {
          "internalType": "string",
          "name": "",
          "type": "string"
        }
      ],
      "stateMutability": "view",
      "type": "function"
    },
    {
      "inputs": [],
      "name": "owner",
      "outputs": [
        {
          "internalType": "address",
          "name": "",
          "type": "address"
        }
      ],
      "stateMutability": "view",
      "type": "function"
    },
    {
      "inputs": [
        {
          "internalType": "address",
          "name": "",
          "type": "address"
        }
      ],
      "name": "savingsBalance",
      "outputs": [
        {
          "internalType": "uint256",
          "name": "",
          "type": "uint256"
        }
      ],
      "stateMutability": "view",
      "type": "function"
    },
    {
      "inputs": [],
      "name": "symbol",
      "outputs": [
        {
          "internalType": "string",
          "name": "",
          "type": "string"
        }
      ],
      "stateMutability": "view",
      "type": "function"
    },
    {
      "inputs": [],
      "name": "totalSupply",
      "outputs": [
        {
          "internalType": "uint256",
          "name": "",
          "type": "uint256"
        }
      ],
      "stateMutability": "view",
      "type": "function"
    },
    {
      "inputs": [
        {
          "internalType": "address",
          "name": "_to",
          "type": "address"
        },
        {
          "internalType": "uint256",
          "name": "_value",
          "type": "uint256"
        }
      ],
      "name": "transfer",
      "outputs": [
        {
          "internalType": "bool",
          "name": "success",
          "type": "bool"
        }
      ],
      "stateMutability": "nonpayable",
      "type": "function"
    },
    {
      "inputs": [
        {
          "internalType": "address",
          "name": "_from",
          "type": "address"
        },
        {
          "internalType": "address",
          "name": "_to",
          "type": "address"
        },
        {
          "internalType": "uint256",
          "name": "_value",
          "type": "uint256"
        }
      ],
      "name": "transferFrom",
      "outputs": [
        {
          "internalType": "bool",
          "name": "success",
          "type": "bool"
        }
      ],
      "stateMutability": "nonpayable",
      "type": "function"
    },
    {
      "inputs": [
        {
          "internalType": "uint256",
          "name": "_amount",
          "type": "uint256"
        }
      ],
      "name": "withdraw",
      "outputs": [],
      "stateMutability": "nonpayable",
      "type": "function"
    }
  ],
  "bytecode": "0x60806040526040518060400160405280600581526020017f446562656500000000000000000000000000000000000000000000000000000081525060009081610048919061044f565b506040518060400160405280600381526020017f42454500000000000000000000000000000000000000000000000000000000008152506001908161008d919061044f565b506012600260006101000a81548160ff021916908360ff1602179055503480156100b657600080fd5b50604051611f12380380611f1283398181016040528101906100d89190610552565b8033600460006101000a81548173ffffffffffffffffffffffffffffffffffffffff021916908373ffffffffffffffffffffffffffffffffffffffff160217905550600260009054906101000a900460ff1660ff16600a61013991906106e1565b81610144919061072c565b600381905550600354600560003373ffffffffffffffffffffffffffffffffffffffff1673ffffffffffffffffffffffffffffffffffffffff168152602001908152602001600020819055503373ffffffffffffffffffffffffffffffffffffffff16600073ffffffffffffffffffffffffffffffffffffffff167fddf252ad1be2c89b69c2b068fc378daa952ba7f163c4a11628f55a4df523b3ef6003546040516101f0919061077d565b60405180910390a35050610798565b600081519050919050565b7f4e487b7100000000000000000000000000000000000000000000000000000000600052604160045260246000fd5b7f4e487b7100000000000000000000000000000000000000000000000000000000600052602260045260246000fd5b6000600282049050600182168061028057607f821691505b60208210810361029357610292610239565b5b50919050565b60008190508160005260206000209050919050565b60006020601f8301049050919050565b600082821b905092915050565b6000600883026102fb7fffffffffffffffffffffffffffffffffffffffffffffffffffffffffffffffff826102be565b61030586836102be565b95508019841693508086168417925050509392505050565b6000819050919050565b6000819050919050565b600061034c6103476103428461031d565b610327565b61031d565b9050919050565b6000819050919050565b61036683610331565b61037a61037282610353565b8484546102cb565b825550505050565b600090565b61038f610382565b61039a81848461035d565b505050565b5b818110156103be576103b3600082610387565b6001810190506103a0565b5050565b601f821115610403576103d481610299565b6103dd846102ae565b810160208510156103ec578190505b6104006103f8856102ae565b83018261039f565b50505b505050565b600082821c905092915050565b600061042660001984600802610408565b1980831691505092915050565b600061043f8383610415565b9150826002028217905092915050565b610458826101ff565b67ffffffffffffffff8111156104715761047061020a565b5b61047b8254610268565b6104868282856103c2565b600060209050601f8311600181146104b957600084156104a7578287015190505b6104b18582610433565b865550610519565b601f1984166104c786610299565b60005b828110156104ef578489015182556001820191506020850194506020810190506104ca565b8683101561050c5784890151610508601f891682610415565b8355505b6001600288020188555050505b505050505050565b600080fd5b61052f8161031d565b811461053a57600080fd5b50565b60008151905061054c81610526565b92915050565b60006020828403121561056857610567610521565b5b60006105768482850161053d565b91505092915050565b7f4e487b7100000000000000000000000000000000000000000000000000000000600052601160045260246000fd5b60008160011c9050919050565b6000808291508390505b6001851115610605578086048111156105e1576105e061057f565b5b60018516156105f05780820291505b80810290506105fe856105ae565b94506105c5565b94509492505050565b60008261061e57600190506106da565b8161062c57600090506106da565b8160018114610642576002811461064c5761067b565b60019150506106da565b60ff84111561065e5761065d61057f565b5b8360020a9150848211156106755761067461057f565b5b506106da565b5060208310610133831016604e8410600b84101617156106b05782820a9050838111156106ab576106aa61057f565b5b6106da565b6106bd84848460016105bb565b925090508184048111156106d4576106d361057f565b5b81810290505b9392505050565b60006106ec8261031d565b91506106f78361031d565b92506107247fffffffffffffffffffffffffffffffffffffffffffffffffffffffffffffffff848461060e565b905092915050565b60006107378261031d565b91506107428361031d565b92508282026107508161031d565b915082820484148315176107675761076661057f565b5b5092915050565b6107778161031d565b82525050565b6000602082019050610792600083018461076e565b92915050565b61176b806107a76000396000f3fe608060405234801561001057600080fd5b50600436106100ea5760003560e01c8063313ce5671161008c57806395d89b411161006657806395d89b4114610273578063a9059cbb14610291578063b6b55f25146102c1578063dd62ed3e146102dd576100ea565b8063313ce5671461020757806370a08231146102255780638da5cb5b14610255576100ea565b806318160ddd116100c857806318160ddd1461016d57806323b872dd1461018b57806327c9a2f4146101bb5780632e1a7d4d146101eb576100ea565b806306fdde03146100ef578063095ea7b31461010d5780631262c6a51461013d575b600080fd5b6100f761030d565b6040516101049190610fe9565b60405180910390f35b610127600480360381019061012291906110a4565b61039b565b60405161013491906110ff565b60405180910390f35b6101576004803603810190610152919061111a565b6104fb565b6040516101649190611156565b60405180910390f35b610175610544565b6040516101829190611156565b60405180910390f35b6101a560048036038101906101a09190611171565b61054a565b6040516101b291906110ff565b60405180910390f35b6101d560048036038101906101d0919061111a565b6108ab565b6040516101e29190611156565b60405180910390f35b610205600480360381019061020091906111c4565b6108c3565b005b61020f610a85565b60405161021c919061120d565b60405180910390f35b61023f600480360381019061023a919061111a565b610a98565b60405161024c9190611156565b60405180910390f35b61025d610ab0565b60405161026a9190611237565b60405180910390f35b61027b610ad6565b6040516102889190610fe9565b60405180910390f35b6102ab60048036038101906102a691906110a4565b610b64565b6040516102b891906110ff565b60405180910390f35b6102db60048036038101906102d691906111c4565b610d72565b005b6102f760048036038101906102f29190611252565b610f34565b6040516103049190611156565b60405180910390f35b6000805461031a906112c1565b80601f0160208091040260200160405190810160405280929190818152602001828054610346906112c1565b80156103935780601f1061036857610100808354040283529160200191610393565b820191906000526020600020905b81548152906001019060200180831161037657829003601f168201915b505050505081565b60008073ffffffffffffffffffffffffffffffffffffffff168373ffffffffffffffffffffffffffffffffffffffff160361040b576040517f08c379a00000000000000000000000000000000000000000000000000000000081526004016104029061133e565b60405180910390fd5b81600660003373ffffffffffffffffffffffffffffffffffffffff1673ffffffffffffffffffffffffffffffffffffffff16815260200190815260200160002060008573ffffffffffffffffffffffffffffffffffffffff1673ffffffffffffffffffffffffffffffffffffffff168152602001908152602001600020819055508273ffffffffffffffffffffffffffffffffffffffff163373ffffffffffffffffffffffffffffffffffffffff167f8c5be1e5ebec7d5bd14f71427d1e84f3dd0314c0f7b2291e5b200ac8c7c3b925846040516104e99190611156565b60405180910390a36001905092915050565b6000600760008373ffffffffffffffffffffffffffffffffffffffff1673ffffffffffffffffffffffffffffffffffffffff168152602001908152602001600020549050919050565b60035481565b600081600560008673ffffffffffffffffffffffffffffffffffffffff1673ffffffffffffffffffffffffffffffffffffffff1681526020019081526020016000205410156105ce576040517f08c379a00000000000000000000000000000000000000000000000000000000081526004016105c5906113aa565b60405180910390fd5b81600660008673ffffffffffffffffffffffffffffffffffffffff1673ffffffffffffffffffffffffffffffffffffffff16815260200190815260200160002060003373ffffffffffffffffffffffffffffffffffffffff1673ffffffffffffffffffffffffffffffffffffffff16815260200190815260200160002054101561068d576040517f08c379a000000000000000000000000000000000000000000000000000000000815260040161068490611416565b60405180910390fd5b600073ffffffffffffffffffffffffffffffffffffffff168373ffffffffffffffffffffffffffffffffffffffff16036106fc576040517f08c379a00000000000000000000000000000000000000000000000000000000081526004016106f390611482565b60405180910390fd5b81600560008673ffffffffffffffffffffffffffffffffffffffff1673ffffffffffffffffffffffffffffffffffffffff168152602001908152602001600020600082825461074b91906114d1565b9250508190555081600560008573ffffffffffffffffffffffffffffffffffffffff1673ffffffffffffffffffffffffffffffffffffffff16815260200190815260200160002060008282546107a19190611505565b9250508190555081600660008673ffffffffffffffffffffffffffffffffffffffff1673ffffffffffffffffffffffffffffffffffffffff16815260200190815260200160002060003373ffffffffffffffffffffffffffffffffffffffff1673ffffffffffffffffffffffffffffffffffffffff168152602001908152602001600020600082825461083491906114d1565b925050819055508273ffffffffffffffffffffffffffffffffffffffff168473ffffffffffffffffffffffffffffffffffffffff167fddf252ad1be2c89b69c2b068fc378daa952ba7f163c4a11628f55a4df523b3ef846040516108989190611156565b60405180910390a3600190509392505050565b60076020528060005260406000206000915090505481565b60008111610906576040517f08c379a00000000000000000000000000000000000000000000000000000000081526004016108fd906115ab565b60405180910390fd5b80600760003373ffffffffffffffffffffffffffffffffffffffff1673ffffffffffffffffffffffffffffffffffffffff168152602001908152602001600020541015610988576040517f08c379a000000000000000000000000000000000000000000000000000000000815260040161097f90611617565b60405180910390fd5b80600760003373ffffffffffffffffffffffffffffffffffffffff1673ffffffffffffffffffffffffffffffffffffffff16815260200190815260200160002060008282546109d791906114d1565b9250508190555080600560003373ffffffffffffffffffffffffffffffffffffffff1673ffffffffffffffffffffffffffffffffffffffff1681526020019081526020016000206000828254610a2d9190611505565b925050819055503373ffffffffffffffffffffffffffffffffffffffff167f7084f5476618d8e60b11ef0d7d3f06914655adb8793e28ff7f018d4c76d505d582604051610a7a9190611156565b60405180910390a250565b600260009054906101000a900460ff1681565b60056020528060005260406000206000915090505481565b600460009054906101000a900473ffffffffffffffffffffffffffffffffffffffff1681565b60018054610ae3906112c1565b80601f0160208091040260200160405190810160405280929190818152602001828054610b0f906112c1565b8015610b5c5780601f10610b3157610100808354040283529160200191610b5c565b820191906000526020600020905b815481529060010190602001808311610b3f57829003601f168201915b505050505081565b600081600560003373ffffffffffffffffffffffffffffffffffffffff1673ffffffffffffffffffffffffffffffffffffffff168152602001908152602001600020541015610be8576040517f08c379a0000000000000000000000000000000000000000000000000000000008152600401610bdf906113aa565b60405180910390fd5b600073ffffffffffffffffffffffffffffffffffffffff168373ffffffffffffffffffffffffffffffffffffffff1603610c57576040517f08c379a0000000000000000000000000000000000000000000000000000000008152600401610c4e90611482565b60405180910390fd5b81600560003373ffffffffffffffffffffffffffffffffffffffff1673ffffffffffffffffffffffffffffffffffffffff1681526020019081526020016000206000828254610ca691906114d1565b9250508190555081600560008573ffffffffffffffffffffffffffffffffffffffff1673ffffffffffffffffffffffffffffffffffffffff1681526020019081526020016000206000828254610cfc9190611505565b925050819055508273ffffffffffffffffffffffffffffffffffffffff163373ffffffffffffffffffffffffffffffffffffffff167fddf252ad1be2c89b69c2b068fc378daa952ba7f163c4a11628f55a4df523b3ef84604051610d609190611156565b60405180910390a36001905092915050565b60008111610db5576040517f08c379a0000000000000000000000000000000000000000000000000000000008152600401610dac906116a9565b60405180910390fd5b80600560003373ffffffffffffffffffffffffffffffffffffffff1673ffffffffffffffffffffffffffffffffffffffff168152602001908152602001600020541015610e37576040517f08c379a0000000000000000000000000000000000000000000000000000000008152600401610e2e90611715565b60405180910390fd5b80600560003373ffffffffffffffffffffffffffffffffffffffff1673ffffffffffffffffffffffffffffffffffffffff1681526020019081526020016000206000828254610e8691906114d1565b9250508190555080600760003373ffffffffffffffffffffffffffffffffffffffff1673ffffffffffffffffffffffffffffffffffffffff1681526020019081526020016000206000828254610edc9190611505565b925050819055503373ffffffffffffffffffffffffffffffffffffffff167f2da466a7b24304f47e87fa2e1e5a81b9831ce54fec19055ce277ca2f39ba42c482604051610f299190611156565b60405180910390a250565b6006602052816000526040600020602052806000526040600020600091509150505481565b600081519050919050565b600082825260208201905092915050565b60005b83811015610f93578082015181840152602081019050610f78565b60008484015250505050565b6000601f19601f8301169050919050565b6000610fbb82610f59565b610fc58185610f64565b9350610fd5818560208601610f75565b610fde81610f9f565b840191505092915050565b600060208201905081810360008301526110038184610fb0565b905092915050565b600080fd5b600073ffffffffffffffffffffffffffffffffffffffff82169050919050565b600061103b82611010565b9050919050565b61104b81611030565b811461105657600080fd5b50565b60008135905061106881611042565b92915050565b6000819050919050565b6110818161106e565b811461108c57600080fd5b50565b60008135905061109e81611078565b92915050565b600080604083850312156110bb576110ba61100b565b5b60006110c985828601611059565b92505060206110da8582860161108f565b9150509250929050565b60008115159050919050565b6110f9816110e4565b82525050565b600060208201905061111460008301846110f0565b92915050565b6000602082840312156111305761112f61100b565b5b600061113e84828501611059565b91505092915050565b6111508161106e565b82525050565b600060208201905061116b6000830184611147565b92915050565b60008060006060848603121561118a5761118961100b565b5b600061119886828701611059565b93505060206111a986828701611059565b92505060406111ba8682870161108f565b9150509250925092565b6000602082840312156111da576111d961100b565b5b60006111e88482850161108f565b91505092915050565b600060ff82169050919050565b611207816111f1565b82525050565b600060208201905061122260008301846111fe565b92915050565b61123181611030565b82525050565b600060208201905061124c6000830184611228565b92915050565b600080604083850312156112695761126861100b565b5b600061127785828601611059565b925050602061128885828601611059565b9150509250929050565b7f4e487b7100000000000000000000000000000000000000000000000000000000600052602260045260246000fd5b600060028204905060018216806112d957607f821691505b6020821081036112ec576112eb611292565b5b50919050565b7f496e76616c696420616464726573730000000000000000000000000000000000600082015250565b6000611328600f83610f64565b9150611333826112f2565b602082019050919050565b600060208201905081810360008301526113578161131b565b9050919050565b7f496e73756666696369656e742066756e64730000000000000000000000000000600082015250565b6000611394601283610f64565b915061139f8261135e565b602082019050919050565b600060208201905081810360008301526113c381611387565b9050919050565b7f416c6c6f77616e63652065786365656465640000000000000000000000000000600082015250565b6000611400601283610f64565b915061140b826113ca565b602082019050919050565b6000602082019050818103600083015261142f816113f3565b9050919050565b7f496e76616c696420726563697069656e74000000000000000000000000000000600082015250565b600061146c601183610f64565b915061147782611436565b602082019050919050565b6000602082019050818103600083015261149b8161145f565b9050919050565b7f4e487b7100000000000000000000000000000000000000000000000000000000600052601160045260246000fd5b60006114dc8261106e565b91506114e78361106e565b92508282039050818111156114ff576114fe6114a2565b5b92915050565b60006115108261106e565b915061151b8361106e565b9250828201905080821115611533576115326114a2565b5b92915050565b7f576974686472617720616d6f756e74206d75737420626520677265617465722060008201527f7468616e207a65726f0000000000000000000000000000000000000000000000602082015250565b6000611595602983610f64565b91506115a082611539565b604082019050919050565b600060208201905081810360008301526115c481611588565b9050919050565b7f496e73756666696369656e7420736176696e67732062616c616e636500000000600082015250565b6000611601601c83610f64565b915061160c826115cb565b602082019050919050565b60006020820190508181036000830152611630816115f4565b9050919050565b7f4465706f73697420616d6f756e74206d7573742062652067726561746572207460008201527f68616e207a65726f000000000000000000000000000000000000000000000000602082015250565b6000611693602883610f64565b915061169e82611637565b604082019050919050565b600060208201905081810360008301526116c281611686565b9050919050565b7f496e73756666696369656e742062616c616e6365000000000000000000000000600082015250565b60006116ff601483610f64565b915061170a826116c9565b602082019050919050565b6000602082019050818103600083015261172e816116f2565b905091905056fea26469706673582212207042bea738a9aa4a8b1cc67f0d48b103a30934e334284bb10b8919aff73ef26764736f6c634300081c0033",
  "linkReferences": {},
  "deployedLinkReferences": {}
}